:020000040800F2
:100000009806002029020008F3050008EB05000807
:10001000EF050008FF020008B1070008000000001B
:100020000000000000000000000000002D06000895
:1000300059050008000000000906000845070008EF
:10004000430200084302000843020008430200087C
:10005000430200084302000843020008430200086C
:10006000430200084302000843020008430200085C
:10007000430200084302000843020008430200084C
:10008000430200084302000843020008430200083C
:10009000430200084302000843020008430200082C
:1000A000430200084302000843020008430200081C
:1000B000430200084302000843020008430200080C
:1000C00043020008430200084302000843020008FC
:1000D00043020008430200084302000843020008EC
:1000E00043020008430200084302000843020008DC
:1000F00043020008430200084302000843020008CC
:1001000043020008430200084302000843020008BB
:1001100043020008430200084302000843020008AB
:10012000430200084302000843020008430200089B
:10013000430200084302000843020008430200088B
:10014000430200084302000843020008430200087B
:10015000430200084302000843020008430200086B
:10016000430200084302000843020008430200085B
:10017000430200084302000843020008430200084B
:10018000430200084302000800F002F800F03CF8C7
:100190000AA090E8000C82448344AAF10107DA45E2
:1001A00001D100F031F8AFF2090EBAE80F0013F0F8
:1001B000010F18BFFB1A43F001031847FC31000080
:1001C0001C320000103A24BF78C878C1FAD8520710
:1001D00024BF30C830C144BF04680C6070470000C1
:1001E0000023002400250026103A28BF78C1FBD840
:1001F000520728BF30C148BF0B6070471FB502F0DF
:1002000085FF1FBD10B510BD00F044F81146FFF783
:10021000F5FF01F0E3FD00F062F803B4FFF7F2FF31
:1002200003BC00F065F80000094880470948004712
:10023000FEE7FEE7FEE7FEE7FEE7FEE7FEE7FEE796
:10024000FEE7FEE704480549054A064B70470000F3
:10025000490700088901000898000020980600203E
:10026000980200209802002070477047704710B530
:1002700000F008F8006810BD10B5044600F002F860
:10028000046010BD004870473800002000487047E7
:10029000380000207546FFF7F9FFAE4605006946B5
:1002A000534620F00700854618B020B5FFF7CAFF77
:1002B000BDE820404FF000064FF000074FF0000867
:1002C0004FF0000B21F00701AC46ACE8C009ACE8E8
:1002D000C009ACE8C009ACE8C0098D46704710B54C
:1002E0000446AFF300802046BDE81040FFF795BFFD
:1002F00001491820ABBEFEE726000200704700BF90
:10030000FEE700001CB50121084600F07FF91F2020
:10031000009001208DF8040000208DF806000320D5
:100320008DF8050001208DF807006946134800F09C
:1003300014F90121082000F069F91F200090012024
:100340008DF8040000208DF8060003208DF80500CC
:1003500001208DF807006946094800F0FEF80020EA
:100360000849086001200849C1F8840200200749B3
:10037000086001200649C1F884021CBD000002404B
:10038000000C024088024042000040428882414204
:100390000080414200B50121282000F035F80321FA
:1003A000202000F031F80121382000F02DF8002144
:1003B000022000F029F80121282000F079F803211B
:1003C000202000F075F80121382000F071F800219C
:1003D000022000F06DF800BD30B504460D46214600
:1003E000182000F011F82946192000F00DF800201F
:1003F0000349086000BF01200249C1F8840230BDF2
:10040000840240420000404210B502460020012311
:10041000254C236000BF0023244CC4F88C32224CAE
:10042000241D236000201BE002F08003802B04D1F8
:1004300001231D4C0C3C236003E000231A4C0C3CB0
:10044000236000BF0123184C241D236000BF530606
:100450001A0E0023154CC4F8903200BF431CD8B2CA
:100460000828E1DB00201BE001F40043B3F5004F56
:1004700004D101230C4C0C3C236003E000230A4C04
:100480000C3C236000BF0123074C241D236000BFE8
:1004900049000023054CC4F8903200BF431CD8B279
:1004A0001028E1DB10BD00008C02404200004042F9
:1004B00010B5024600200123254C236000BF002315
:1004C000244CC4F88C32224C241D236000201BE0F5
:1004D00002F08003802B04D101231D4C0C3C2360CF
:1004E00003E000231A4C0C3C236000BF0123184C8E
:1004F000241D236000BF53061A0E0023154CC4F8B8
:10050000903200BF431CD8B20828E1DB00201BE07A
:1005100001F40043B3F5004F04D101230C4C0C3C13
:10052000236003E000230A4C0C3C236000BF01233E
:10053000074C241D236000BF49000023054CC4F86C
:10054000903200BF431CD8B21028E1DB10BD000080
:100550008C824142008041427047F0B50A4600213A
:100560000023002400BF3DE0012505FA01F31568D2
:1005700005EA03049C4234D105684F000326BE40BF
:10058000B543056015794E00B540066835430560F2
:100590001579012D02D01579022D16D185684F00ED
:1005A0000326BE40B543856055794E00B540866848
:1005B00035438560456801268E40B54345604568F2
:1005C00096798E40B6B235434560C5684F00032624
:1005D000BE40B543C560D5794E00B540C6683543C9
:1005E000C560491C1029BFD3F0BD00BFFEE700BFA6
:1005F000FEE7704702490143024A1160704700005C
:100600000000FA050CED00E07047000029B1064A31
:1006100012680243044B1A6004E0034A12688243E2
:10062000014B1A60704700003038024070470000EC
:100630000CB50020019000903448006840F48030F0
:100640003249086000BF3148006800F40030009073
:100650000198401C0190009818B90198B0F5A04F7E
:10066000F1D12A48006800F4003010B10120009058
:1006700001E0002000900098012846D12348403036
:10068000006840F0805021494031086020480068EF
:1006900040F440401E4908601C48083000681B496F
:1006A000083108600846006840F4004008600846C9
:1006B000006840F4A05008601648091F0860081F31
:1006C000006840F08070091F086000BF0F48006894
:1006D00000F000700028F9D040F205700E49086063
:1006E0000A480830006820F0030008490831086013
:1006F0000846006840F00200086000BF0348083068
:10070000006800F00C000828F8D10CBD0038024049
:100710000070004008544007003C0240042808D103
:100720004FF0E021096941F004014FF0E02211612E
:1007300007E04FF0E021096921F004014FF0E022C9
:10074000116170477047000010B51548006840F40B
:100750007000134908601348006840F00100114917
:10076000086000200F49083108600E4800680E49F3
:1007700008400C4908600D48091D0860081F006802
:1007800020F48020091F0860002006490C31086011
:10079000FFF74EFF4FF0006001498039086010BD3F
:1007A00088ED00E000380240FFFFF6FE1030002424
:1007B00000BFFEE703B401984100009850EAC12051
:1007C00018BF04204A0D18BF40F0010040F2FF722C
:1007D000B2EB515F08BF40F00200012808BF0520BE
:1007E00002B07047000000002DE9F04D2DED040B24
:1007F0002DED0E8B96B0DDE92550279CDDF890A0FD
:1008000025F0004624F00048BAF1000F14BF012182
:10081000002101EB4502FC4953184A1093422AD3A8
:10082000002814BF0123002303EB44030B44F749C2
:100830008B4220D358EA00019FEDF59B76D0DFF87C
:10084000D8B35D4503D1BAF1000F05D188E0BAF104
:10085000000F08BF002100D0012101EB450111F577
:10086000001F08D8002814BF0121002101EB44011A
:1008700011F5001F0BD99DED261B9DED240B16B025
:10088000BDEC0E8B04B0BDE8F04D01F043BA00277B
:10089000002DBCBFE149884521DAE1498845A8BF60
:1008A00002271CDAC3451ADCDE4901EB2851142962
:1008B00008DDC1F1340220FA02F101FA02F28242AB
:1008C0000DD108E058B9C1F1140228FA02F101FA79
:1008D00002F2424503D101F00101C1F1020756EADB
:1008E0000A0124D1002C22DA002D18BF022F01D0DA
:1008F000012F0AD00220FFF7BFFC16B0BDEC0E8B13
:1009000004B0BDE8F04D01F0E3B90220FFF7B4FCFC
:1009100001F0DEF951EC100B01F01EFE41EC100B62
:1009200016B0BDEC0E8B04B0BDE8F08D18E09FED65
:10093000BEAB9FEDBF8B002871D1B848804522D156
:1009400005F1804010F5801008BFBAF1000F07D004
:10095000B3450ADC002CA8BF9DED260BE0DA0DE0C4
:10096000B0EE490AF0EE690ADAE7002C06DA9DEDEE
:10097000260B51EC100B01F0EFFD6FE0AE48784410
:1009800090ED000BCCE7D8454DD1002C48DA2EB1C4
:1009900086423AD1BAF1000F42D126E0BAF1000FF7
:1009A00013D00220FFF768FC01F0CEF98DED020BA9
:1009B0009DED240B8DED000B10EE900A039961F371
:1009C0001E0003909DED020BAAE78DED02AB9DED9D
:1009D000240B1AEE901A10EE900A8DED000B61F3C5
:1009E0001E0003909DED020B9AE78DED028B9DEDAD
:1009F000240B18EE901A10EE900A8DED000B61F3A7
:100A00001E0003909DED020B8AE709DA9DED240B91
:100A100051EC190B53EC102B01F066FE1EE020E0A8
:100A20009DED240B7CE786421BDAB4F1804F0DD09C
:100A3000A4F10050B0F1FF5013D1002D11DB9DED5A
:100A4000240B51EC100B01F055FC07E09DED240B3D
:100A500053EC102B51EC100B00F0C2BC41EC100B0E
:100A60005EE79DED240B51EC100B01F0ABF9BAF1F0
:100A7000000FCDE90E0142D19FED710B46B3A6F1F7
:100A8000E040B0F17F600CD05E4538D1002D00DA37
:100A9000A7B3022F0CBF01204FF0FF3001F0D9FFA8
:100AA000DCE7002D01DD002C0DDA002D01DD002C2E
:100AB0001FDB002D16DA002C14DB012F08BF9FED81
:100AC000620B3FF42DAFB0EE4A0AF0EE6A0A27E758
:100AD000022F18BF002D0CD0012F0AD1002DFFF6D8
:100AE0001FAF06E0002DB8BF002C08DA012F3FF43D
:100AF00017AFB0EE480AF0EE680A11E71BE00120DC
:100B000000EBE57050EA070115D0791EB0EE498A76
:100B1000F0EE698A084308BF9FED4D8B4E480025D3
:100B2000804570DD4D494E48884514DDB0420DDBEF
:100B3000002C19DB2FE00120FFF79EFB16B0BDEC67
:100B40000E8B04B0BDE8F04D01F0EEB8B34502DC09
:100B5000002C09DC1FE0864202DA002C1BDA03E0DD
:100B60005E452BDD002C16DD0220FFF785FB01F032
:100B7000EBF88DED020B53EC1A2B51EC180B01F036
:100B8000CFFFCDE900010399019861F31E000390A6
:100B90009DED020BC4E60220FFF76EFB01F0E4F8C6
:100BA00010EE901A18EE900A8DED020B8DED008B71
:100BB00061F31E0003909DED020BB1E69DED0E0B5F
:100BC00053EC192B51EC100B02F0B6F99FED260BEC
:100BD000CDE9080153EC102B9DED080B51EC100BE7
:100BE00001F09EFF9FED221B53EC112B02F0CCF87D
:100BF0009DED081B53EC112B01F092FF9FED1E1B86
:100C000053EC112B3CE08CE0FFFF1F00FFFF0F00B7
:100C1000000000000000F03F0000F03F0000F07F07
:100C20000000404301FCFFFF000000000000F07FD7
:100C300000000000000000003E290000000000004D
:100C40000000000000000080000000000000F0FF35
:100C5000000000000000F0BF0000E0410000F04391
:100C6000FFFFEF3F00000000000000000000D03F49
:100C7000555555555555D53F000000000000E03F43
:100C800002F082F89DED080B41EC1A0B53EC102B8F
:100C900051EC100B01F044FF53EC1A2B01F040FF14
:100CA00041EC1A0B9FEDFE0B53EC102B9DED080B46
:100CB00051EC100B01F034FF41EC1B0B9FEDFA0BD4
:100CC00051EC1A0B53EC102B01F02AFF41EC1A0BDC
:100CD0009FEDF70B53EC102B9DED080B51EC100B17
:100CE00001F01EFF53EC1A2B02F026F941EC1A0B0F
:100CF00051EC1B0B53EC1A2B01F03AFC0690CDE99A
:100D000006519DED060B53EC1B2B51EC100B02F022
:100D100013F953EC1A2B02F037F841EC100B00F0EA
:100D2000A1B90020B6F5801F0EDA9FEDE30B53EC5E
:100D3000102B9DED0E0B51EC100B01F0F1FECDE9E7
:100D40000E016FF034000E4600EB2650A0F2FF3784
:100D5000C6F31300DA4940F07F6646F040568842F9
:100D6000D8BF002408DDD7498142C8BF012403DC75
:100D70000024A6F580167F1CD348784400EBC400FD
:100D80000F9690ED00CB9DED0E0B53EC1C2B51EC10
:100D9000100B02F0D1F89DED0E0B41EC1B0B53EC48
:100DA0001C2B51EC100B01F0E3FB41EC100B51EC50
:100DB000190B53EC102B01F097FC41EC1D0B51EC7F
:100DC0001B0B53EC1D2B01F0ABFE41EC1A0BBF4883
:100DD0008DED10AB7844109590ED000B4FF0005066
:100DE00040EA660000EB84408DED080B00F5002022
:100DF00009909DED080B53EC1C2B51EC100B02F0ED
:100E00009BF89DED0E1B53EC112B01F0BDFF41EC47
:100E1000100B53EC102B9DED100B51EC100B01F04F
:100E20007FFE9DED080B41EC1C0B53EC102B9DED50
:100E3000100B51EC100B01F073FE53EC1B2B01F067
:100E4000A3FF53EC1C2B02F077F853EC1D2B01F0A1
:100E500067FE41EC1C0B53EC1A2B51EC1A0B01F002
:100E60005FFE41EC1B0B9A480621B0EE4B0AF0EEF8
:100E70006B0A784400F018FEB0EE401AF0EE601AEB
:100E8000B0EE41DAF0EE61DA53EC1B2B51EC1B0BA8
:100E900001F046FE53EC1D2B01F042FE9DED100BC0
:100EA00041EC1B0B53EC1A2B51EC100B01F060FBC7
:100EB00053EC1C2B01F034FE53EC1B2B01F058FBC0
:100EC0009DED100B41EC1B0B53EC102B51EC100B58
:100ED00001F026FE41EC1D0B9FED7FEB53EC1E2B2A
:100EE00001F046FB53EC1B2B01F042FB0890CDE9CF
:100EF00008519DED080B53EC1E2B51EC100B02F02A
:100F00001BF853EC1D2B02F017F853EC1B2B01F0D0
:100F10003BFF9DED080B41EC1D0B53EC102B9DEDA1
:100F2000100B51EC100B01F0FBFD41EC1B0B53ECD3
:100F30001A2B51EC1D0B01F0F3FD9DED080B41EC5C
:100F40001A0B53EC102B51EC1C0B01F0E9FD53EC88
:100F50001A2B01F00DFB41EC1A0B51EC1B0B53EC5F
:100F60001A2B01F005FB0C90CDE90C519DED0C0BFB
:100F700053EC1B2B51EC100B01F0DEFF53EC1A2B42
:100F800001F002FF41EC1B0B9FED550B53EC102BB6
:100F90009DED0C0B51EC100B01F0C2FD41EC1A0B56
:100FA0009FED510B51EC1B0B53EC102B01F0B8FDD6
:100FB00041EC1B0B9FED4E0B53EC102B9DED0C0BDE
:100FC00051EC100B01F0ACFD53EC1B2B01F0D0FAEF
:100FD00041EC100B4848784400EBC40090ED001B36
:100FE00051EC100B53EC112B01F0C2FA41EC1B0B2E
:100FF000384601F02EFDCDE9080153EC1B2B51ECD6
:101000001A0B01F0B5FA41EC100B3C48784400EBA8
:10101000C40090ED00CB51EC100B53EC1C2B01F0F5
:10102000A7FA9DED081B53EC112B01F0A1FA0690D5
:10103000CDE906519DED080B53EC102B9DED060BF1
:1010400051EC100B01F078FF53EC1C2B01F074FFF6
:1010500053EC1A2B01F070FF53EC1B2B01F094FEA4
:1010600041EC100B9DED261B53EC102B8DED001B5E
:1010700000959DED260B51EC100B01F051FD9DEDFF
:10108000000B41EC1A0B53EC102B9DED260B51EC91
:10109000100B01F051FF9DED061B53EC112B2FE0BF
:1010A000000000604715F73FFE822B654715F73FAC
:1010B00044DF5DF80BAE543E0000000000004043EA
:1010C0008E9803007AB60B008A240000E824000002
:1010D000C2230000000000000000000000000840E3
:1010E000000000E009C7EE3FFD033ADC09C7EE3F10
:1010F000F5015B14E02F3EBE4E22000008220000E6
:1011000001F00EFD53EC1A2B01F032FA9DED060BA7
:1011100041EC1A0B53EC102B9DED000B51EC100B16
:1011200001F0FEFCCDE90C019DED0C0B51EC1A0B0E
:1011300053EC102B01F01CFACDE902010C46AA4930
:101140008C422FDB611A084318D19DED0C0B53EC38
:10115000102B9DED020B51EC100B01F0EDFE41EC5C
:101160001B0B9FEDA30B51EC1A0B53EC102B01F052
:10117000FFF953EC1B2B01F0D1FD2DD20220FFF71C
:101180007BF800F0E1FD10EE901A18EE900A8DED5C
:10119000020B8DED008B61F31E0003909DED020BA1
:1011A000FFF7BEBB944A24F00041914214D3934907
:1011B000214408437FF4EFAC9DED0C0B53EC102B56
:1011C0009DED020B51EC100B01F0B6FE53EC1A2B07
:1011D00001F0A4FD7FF6DFAC24F000408849894A85
:1011E000002601EB205182422BDA481C4FF480117B
:1011F00021FA00F02044844AC0F30A517A44A1F253
:10120000FF3192ED000B814A8DED080BCA4020EAB8
:101210000202C0F3130040F48010C1F1140120FA5F
:1012200001F60992002CB8BF76429DED080B53ECF5
:10123000102B9DED0C0B51EC100B01F07DFECDE958
:101240000C019DED0C0B51EC1A0B53EC102B01F023
:101250008FF99FED6F0B0890CDE9085153EC102BDF
:101260009DED080B51EC100B01F05AFC41EC1B0BEF
:101270009FED690B53EC102B9DED080B51EC100BFF
:1012800001F04EFC9DED0C0B41EC1C0B53EC102BB4
:101290009DED080B51EC100B01F04EFE53EC1A2B98
:1012A00001F072FD9FED5E1B53EC112B01F038FC39
:1012B00053EC1C2B01F05CF941EC1A0B51EC1B0BAD
:1012C00053EC1A2B01F054F9CDE902019DED020B0C
:1012D00053EC1B2B51EC100B01F02EFE53EC1A2B90
:1012E00001F052FD9DED020B41EC1A0B53EC102B5B
:1012F00051EC100B01F014FCCDE908014A489DEDBA
:10130000080B0521784400F0CFFB9DED081B51EC44
:10131000100B53EC112B01F003FC9DED021B53EC61
:10132000112B01F031FDCDE906019DED020B53ECCF
:101330001A2B51EC100B01F0F3FB53EC1A2B01F0BC
:1013400017F99FED3B0B41EC1A0B53EC102B9DED65
:10135000060B51EC100B01F0EFFD9DED060B41EC7F
:101360001B0B53EC102B9DED020B51EC100B01F0FD
:10137000D7FB53EC1B2B01F0B7F953EC1A2B01F000
:10138000DBFD9DED021B53EC112B01F0D5FD53EC61
:10139000192B01F0F9FCCDE9020101EB0650011512
:1013A0000029C8BF039015DC9DED020B324651ECBD
:1013B000100B01F0E2FEFFF7FDF9042808BF00F072
:1013C000D3FC32469DED020B51EC100B01F0D5FE23
:1013D000CDE902019DED020B51EC180B53EC102BE3
:1013E00001F09EFBFFF73ABB0000904000000000B8
:1013F000FE822B654715973C00CC904000346F3F30
:1014000001FCFFFF0000E03FC0200000FFFF0F00D5
:1014100000000000432EE63F396CA80C615C20BE42
:10142000EF39FAFE422EE63F601F00000000000088
:10143000000000000000004010B52F499FED2C1B5C
:101440002DED020B84B0059820F000408842DCBFEF
:1014500000209DED040B32DD2849884209D1049813
:1014600040B94FF00100FEF707FF00F05DFC06B049
:1014700010BD05DB9DED040B00F042FC06B010BD75
:1014800068469DED040B00F03BF810F0030011D00E
:10149000012818D09DED021B9DED000B02281AD0EB
:1014A00000F04AFA51EC100B01F056F806B041EC8E
:1014B000100B10BD9DED021B9DED000B012000F0F7
:1014C0006FFB06B010BD9DED021B9DED000B00F003
:1014D00033FA06B010BD012000F062FB51EC100B96
:1014E00001F03AF806B041EC100B10BD000000000E
:1014F0000000000000000000FB21E93F0000F07F39
:101500002DE9F14F04462DED020B2DED088B8AB02D
:101510009FEDE70B80ED020B139EE74826F0004598
:1015200085420ADC9DED120B002084ED000B0AB011
:10153000BDEC088B03B0BDE8F08FE0489FEDE0AB59
:101540009FEDE1BBA84247DDE14F9FEDE39B9FED9F
:10155000E48B9DED120B53EC1A2B51EC100B002E6B
:101560001CDD01F0E9FC41EC100BBD4208D053EC4E
:101570001B2B51EC100B01F0DFFCC4E900010BE068
:1015800053EC192B51EC100B01F0D6FC53EC182B3B
:1015900001F0D2FCC4E900010120C8E700F0E8FF37
:1015A00041EC100BBD4208D053EC1B2B51EC100B3F
:1015B00000F0DEFFC4E900010BE053EC192B51EC05
:1015C000100B00F0D5FF53EC182B00F0D1FFC4E94D
:1015D00000014FF0FF30AAE7C348A84279DB9DED38
:1015E000120B51EC100B00F0EDFB41EC180B9FEDD2
:1015F000C00B53EC102B01F093FA9FEDBF1B53EC83
:10160000112B00F0B5FF01F0C7F9074601F021FAF0
:1016100041EC190B53EC1A2B01F082FA53EC182B06
:1016200001F0B2FB41EC180B53EC1B2B51EC190BE6
:1016300001F076FADFF8C8A241EC100B4FEA15581A
:101640000125FA4453EC102B51EC180B01F074FCFB
:10165000032DC4E900013DD0C1F30A5005EB45114B
:10166000A8EB00001139814234DA0AEB051BB0EE19
:1016700048AA9BED000BF0EE68AA53EC102B51EC3E
:10168000190B01F04DFA41EC1B0B51EC1A0B53EC0A
:101690001B2B01F051FC41EC180B51EC1A0B53ECD5
:1016A000182B01F049FC53EC1B2B01F045FC9BED82
:1016B000020B41EC1A0B53EC102B51EC190B01F0FF
:1016C0002FFA53EC1A2B01F037FC41EC100B6D1C78
:1016D000B8E70EE0002EA8BF3846BFF628AF94ED5D
:1016E000000B51EC100B00F037FFC4E90001784209
:1016F0001DE7C6F3130040F4801EC6F30A50A0F2A3
:10170000F530471100F01F05C5F12000DDF848B0A5
:1017100008900020069007900520EC467949002D9E
:1017200007EB0002794408BF51F8221009D051F8A4
:10173000223001EB8201AB404A68089922FA01F19C
:101740001943A1FB0E26A1FB0B131A449A4234BF86
:101750000123002303EB06080CEB8003D3E901A669
:101760000E448E4234BF0121002192448A4411B1BB
:10177000924502D903E0924501D2012100E0002107
:10178000C3E901A641444CF82010011EA0F101005C
:10179000C4DC029800F10050850F0298DDE9036770
:1017A0008000DDF8148001F054F941EC1A0B30464A
:1017B00001F066F99FED541B53EC112B01F0B0F9C9
:1017C00041EC1B0B384601F05BF99FED511B53ECCC
:1017D000112B01F0A5F941EC180B404601F050F92E
:1017E0009FED4D1B53EC112B01F09AF941EC190BB5
:1017F00051EC180B53EC192B00F0BAFE53EC1B2BD9
:1018000000F0B6FE53EC1A2B00F0B2FECDE9080151
:10181000002008909DED080B53EC1A2B51EC100B97
:1018200001F08AFB53EC1B2B01F086FB53EC182BC9
:1018300001F082FB53EC192B01F0A6FA9FED381B47
:1018400053EC112B01F06CF99FED370B41EC180BA9
:1018500053EC102B9DED080B51EC100B01F060F9CF
:1018600053EC182B00F084FE9FED310B41EC180B6C
:1018700053EC102B9DED080B51EC100B01F050F9BF
:1018800053EC182B00F074FE41EC100B139810F081
:10189000004F06D06D4251EC100B00F05DFE41ECA4
:1018A000100B284684ED000B41E60000000000000C
:1018B0000000000000000000FB21E93F7CD902404D
:1018C00000004054FB21F93F3163621A61B4D03DFE
:1018D000FB21F93F000000000000601A61B4D03D18
:1018E0007370032E8A19A33BFB21394100000000CD
:1018F00083C8C96D305FE43F000000000000E03F96
:10190000821C0000D01B0000000000000000103E00
:10191000000000000000103C000000000000103A31
:10192000182D4454FB21F93D3326A611460B113CDA
:1019300000000054FB21F93D10B52DED040B2DEDF9
:10194000088B82B0B0EE419AF0EE619A0B9820F0CD
:1019500000449FED4BABB4F1795F11DA9DED0A0BBA
:1019600051EC100B01F018F8002801BFB0EE4A0A44
:10197000F0EE6A0A02B0BDEC088B04BF04B010BDE3
:101980009DED0A0B53EC102B51EC100B01F0C8F835
:1019900041EC180B3C480621B0EE480AF0EE680A0C
:1019A000784400F081F853EC182B51EC100B01F047
:1019B000B7F89DED0A0B41EC1B0B53EC192B51ECC6
:1019C000100B01F0ADF841EC190B53EC1B2B51EC53
:1019D000180B01F0A5F853EC192B01F0ADFA9FEDAF
:1019E0002C0B41EC190B53EC102B51EC180B01F0A4
:1019F00097F841EC100B2848844210DA53EC192B6D
:101A000051EC100B01F098FA53EC1A2B01F0BCF9D1
:101A100041EC100B02B0BDEC088B04B010BD1F48A8
:101A2000A042BCBF9FED1E1B8DED001B06DBA4F585
:101A300000100190002000909DED001B51EC100B58
:101A400053EC112B01F078FA9DED000B41EC180BD3
:101A500053EC102B51EC1A0B01F06EFA41EC1A0BFF
:101A600053EC192B51EC180B01F066FA53EC1A2BBE
:101A700001F08AF941EC100BCCE7000000000000F7
:101A8000000000000000F03FEC1800000000000023
:101A9000000000000000E03F3333D33F0000E93F87
:101AA000000000000000D23F70B504462DED028B0F
:101AB0004D1E00EBC500B0EE408AF0EE608A90ED5E
:101AC000000B35F0060017D053EC182B51EC100B1F
:101AD00001F026F841EC100B6D1E04EBC50090EDF3
:101AE000001B51EC100B53EC112B00F041FD41ECAD
:101AF000100B35F00600E7D1022D36D0042D1CD096
:101B0000062D1CBFBDEC028B70BD53EC182B51ECA5
:101B1000100B01F005F894ED0A1B53EC112B00F0AB
:101B200027FD53EC182B00F0FBFF94ED081B53EC42
:101B3000112B00F01DFD41EC100B53EC182B51EC58
:101B4000100B00F0EDFF94ED061B53EC112B00F091
:101B50000FFD53EC182B00F0E3FF94ED040B53EC56
:101B6000102B00F005FD41EC100B53EC182B51EC41
:101B7000100B00F0D5FF94ED021B53EC112B00F07D
:101B8000F7FC53EC182B00F0CBFF94ED001B53EC4B
:101B9000112B00F0EDFCBDEC028B41EC100B70BD85
:101BA00031B504462DED040B2DED0A8BB0EE41BA94
:101BB000F0EE61BA0B989DED0A0B20F00040B0F1F9
:101BC000795F0DDA51EC100BFEF7F4FD042808BF25
:101BD00000F0CAF89DED0A0BBDEC0A8B05B030BDD4
:101BE00053EC102B51EC100B00F09AFF41EC180B4A
:101BF0009DED0A0B53EC182B51EC100B00F090FFED
:101C000041EC190B2C48B0EE480AF0EE680A0521A9
:101C10007844FFF749FF9FED2ACBB0EE40AAF0EEE3
:101C200060AA9CB353EC1C2B51EC190B00F078FF0D
:101C300041EC1C0B53EC1A2B51EC190B00F070FF0C
:101C40009FED210B41EC190B53EC102B51EC1B0BAE
:101C500000F066FF53EC192B01F06EF953EC182BD2
:101C600000F05EFF53EC1B2B01F066F953EC1C2BCC
:101C700001F062F99DED0A1B53EC112B01F084F881
:101C8000BDEC0A8B05B041EC100B30BDFFE753EC07
:101C90001A2B51EC180B00F043FF53EC1C2B00F0F7
:101CA00067FC53EC192B00F03BFF9DED0A1B53EC36
:101CB000112B00F05DFCE3E77C1700000000000042
:101CC000495555555555C5BF000000000000E03F7F
:101CD0009FED070B10B553EC102B9FED070B51EC4C
:101CE000100B00F001FD41EC100B10BD00000000D6
:101CF0000000000000000000000000000000F03FB5
:101D000010B553EC102B51EC100B00F031FC41ECF2
:101D1000100B10BD10B553EC112B51EC100B00F053
:101D200027FC41EC100B10BD9FED050B10B553ECDB
:101D3000102B51EC100B00F0D7FC41EC100B10BD38
:101D400000000000000000009FED050B10B553ECF3
:101D5000102B51EC100B00F0E3FE41EC100B10BD0A
:101D600000000000000000709FED050B10B553EC63
:101D7000102B51EC100B00F0D3FE41EC100B10BDFA
:101D8000000000000000001010B504466FF00400D1
:101D9000FEF7C4FCE11704EB5171C1F3C701074A18
:101DA00011701046007800EB4001C1EBC0104FF6F7
:101DB000FF7101EAC0000249088010BD0000002048
:101DC0000200002082B0CDE9000121F00040019026
:101DD0009DED000B02B051EC100B70472DED108BF8
:101DE000A0B09FEDFE0BB0EE408AF0EE608A0020BE
:101DF0000A900B904FF4A060FEF7FCFBA820FFF7C1
:101E0000C3FFFEF77FFAFEF7C5FA9FEDF60BB0EEC3
:101E1000409AF0EE609A1DE29FEDF40BB0EE40AAFE
:101E2000F0EE60AA9FEDF30BB0EE40BAF0EE60BAB0
:101E30008DED1CAB8DED1EBB4FF0000906E2B0EE40
:101E4000490AF0EE690A1CA800F08CFA0546002445
:101E500009E005EBC40090ED000B18A800EBC400EE
:101E600080ED000B641C022CF3D39FEDE40B53ECCC
:101E7000102B51EC180B00F037FC41EC1F0B53EC0E
:101E8000192B00F075FB41EC1E0B9FEDDC0B53ECA6
:101E9000102B51EC180B00F027FC41EC1F0B18A87D
:101EA000B0EE4F0AF0EE6F0A00F0D8F982465146C4
:101EB0001CA800F0F9F98346B0EE4E0AF0EE6E0A67
:101EC00000F050FA0646002409E006EBC40090ED4D
:101ED000000B14A800EBC40080ED000B641C022C66
:101EE000F3D39FEDC60B53EC102B51EC180B00F005
:101EF000FBFB41EC1F0B53EC192B00F039FB41ECC1
:101F00001E0B9FEDBE0B53EC102B51EC180B00F089
:101F1000EBFB41EC1F0B14A8B0EE4F0AF0EE6F0A7A
:101F200000F09CF9824651461CA800F0BDF983469A
:101F3000B0EE4E0AF0EE6E0A00F014FA07460024E6
:101F400009E007EBC40090ED000B10A800EBC40003
:101F500080ED000B641C022CF3D353EC182B51ECD6
:101F6000190B00F005FB41EC1E0B10A8B0EE480A5F
:101F7000F0EE680A00F072F9834659461CA800F09A
:101F800093F98246B0EE4E0AF0EE6E0A00F0EAF9DE
:101F90008046002409E008EBC40090ED000B0CA87B
:101FA00000EBC40080ED000B641C022CF3D39DED0C
:101FB000101BB0EE410AF0EE610A53EC102B9FEDBE
:101FC0008F1B51EC110B00F0ABFDCDE902019DED33
:101FD000141BB0EE410AF0EE610A53EC102B9FED9A
:101FE000871B51EC110B00F09BFD41EC1F0B9DED8D
:101FF000181BB0EE410AF0EE610A53EC102B00F012
:10200000B7FACDE900019DED020B53EC102B9DEDCD
:10201000000B51EC100B00F0ABFACDE904019DED83
:102020000C1BB0EE410AF0EE610A53EC102B9DED53
:10203000041B51EC110B00F09BFA53EC182BCDE96B
:1020400006019DED060B51EC100B00F069FD41EC13
:102050001E0B9FED6C0B53EC102B00F045FB53EC6B
:102060001A2BCDE908019DED080B51EC100B00F087
:102070007FFA41EC1C0B9DED121BB0EE410AF0EE15
:10208000610A53EC102B9FED5D1B51EC110B00F01E
:1020900047FD41EC1F0B9DED161BB0EE410AF0EE23
:1020A000610A53EC102B9FED551B51EC110B00F006
:1020B00037FDCDE900019DED1A1BB0EE410AF0EEAF
:1020C000610A53EC102B9DED001B51EC110B00F03D
:1020D0004FFA53EC1F2BCDE902019DED020B51ECA1
:1020E000100B00F045FACDE904019DED0E1BB0EE9A
:1020F000410AF0EE610A53EC102B9DED041B51ECEC
:10210000110B00F035FA41EC1E0B53EC182B00F0CC
:1021100007FD9FED3C0B53EC102BCDE906019DED27
:10212000060B51EC100B00F0DFFA53EC1B2BCDE942
:1021300008019DED080B51EC100B00F019FA41EC71
:102140001D0B53EC182B51EC190B00F011FA41EC5C
:10215000190B9FED2E0B53EC102B51EC1C0B00F0C8
:1021600007FA9FED2C0B53EC102BCDE908019DEDE8
:10217000080B51EC100B00F0D3FC41EC1F0B9FED52
:10218000270B53EC102B00F0AFFA41EC1E0B00F0C4
:1021900033FC0A909FED1D0B53EC102B51EC1D0BE3
:1021A00000F0E6F941EC1F0B9FED1A0B53EC102BDE
:1021B00000F0B6FC41EC1E0B9FED180B53EC102BFE
:1021C00000F092FACDE908019DED080B51EC100BDF
:1021D00000F012FC0B90DDE90A1023E07B14AE47FF
:1021E000E17A843F00000000000000009A9999996C
:1021F0009999B93F000000000000F03F0000000086
:102200000000004000000000000018400000000036
:102210000000244000000000E0FFEF40000000004C
:1022200000003440FEF7D8F851EC1C0B41EC1A0BBF
:1022300051EC1D0B41EC1B0B51EC1A0BCDE91C01B1
:1022400051EC1B0BCDE91E0109F101090248814542
:10225000FFF4F5ADE0E50000C0C62D0070B52DED32
:10226000028BB0EE408AF0EE608A0546002412E050
:1022700005EBC40090ED001BB0EE410AF0EE610AE0
:1022800053EC102B51EC180B00F04AFC054A02EB02
:10229000C40203C2641C022CEADB0248BDEC028BC0
:1022A00070BD00001800002070B505460E460024E1
:1022B0001AE006EBC40090ED002BB0EE420AF0EEFF
:1022C000620A05EBC40090ED002BB0EE421AF0EE6E
:1022D000621A53EC102B51EC110B00F049F9044A2F
:1022E00002EBC40203C2641C022CE2DB004870BD96
:1022F0002800002000B52DED048B83B041EC190BB4
:1023000000F04EFD41EC180B18EE100A18EE901A72
:102310008DED008B002818BF0120084320F00040FD
:10232000C0F17F6000F1E040C00F14D019EE101A28
:1023300019EE900A8DED009B002918BF012108437A
:1023400020F00040C0F17F6000F1E040C00F04BF0A
:102350000120FDF791FF51EC180B03B0BDEC048B8D
:1023600000BD000010B52DED108B8AB00446B0EE14
:1023700040AAF0EE60AA9FED710BB0EE408AF0EE3D
:10238000608A9FED6E0BB0EE409AF0EE609A9FED82
:102390006D0BB0EE40BAF0EE60BA53EC1A2B9FED25
:1023A0006B0B51EC100B00F0BBFB41EC1D0BB0EEC6
:1023B0004D0AF0EE6D0AFFF73FF8B0EE40CAF0EEBE
:1023C00060CA94ED021BB0EE410AF0EE610A53ECD4
:1023D000102B51EC190B00F0A3FB41EC1E0BB0EEDF
:1023E0004E0AF0EE6E0AFFF727F88DED020B94ED22
:1023F000001BB0EE410AF0EE610A53EC102B51ECD9
:10240000190B00F08DFB41EC1F0BB0EE4F0AF0EE04
:102410006F0AFFF711F88DED000B53EC182B9DEDB3
:10242000000B51EC100B00F07BFB41EC1E0B53EC4E
:10243000182B00F075FB41EC1D0B9DED020B53ECCE
:10244000102B00F06DFBCDE9060194ED001BB0EE02
:10245000410AF0EE610A51EC100B00F07DF8CDE975
:1024600004019DED060B53EC102B9DED040B51EC7C
:10247000100B00F07DF853EC1C2BCDE908019DED0D
:10248000080B51EC100B00F073F8324A03C294EDC4
:10249000001BB0EE410AF0EE610A53EC102B51EC38
:1024A000190B00F03DFB41EC1F0BB0EE4F0AF0EEB4
:1024B0006F0AFEF7C1FFB0EE40EAF0EE60EA9FED72
:1024C0001F1BFEF791F98DED080B53EC182B51EC07
:1024D0001B0B00F025FB41EC1E0B53EC182B00F0FE
:1024E0001FFBCDE906019DED080B53EC102B9DED74
:1024F000060B51EC100B00F013FB41EC1C0B51ECE4
:102500001B0B00F029F841EC1E0B94ED021BB0EE02
:10251000410AF0EE610A53EC102B00F001FB41EC94
:102520001D0B53EC1C2B00F023F80A4AC2E90201F0
:1025300010460AB0BDEC108B10BD0000000000007A
:1025400000000040666666666666F63FA7E8482EAD
:10255000FF2119400800002081F00041704780F001
:102560000040704721F00041704720F00040704764
:1025700010B591EA030F48BF83F0004300F1E484F3
:10258000841A71EB030C05D2121943EB0C03001BE8
:1025900061EB0C01DFF824E14FEA1154A4EB135C6A
:1025A0001EEA430F18BF9EEA445F73D023EA0E036E
:1025B000DCF1200E21EA045143F4801332D322FAD5
:1025C0000CFE10EB0E0023FA0CFE41EB0E01CCF1D9
:1025D000200E03FA0EFE10EB0E0051F10001B1F5D2
:1025E000801FCCF1200E32D201EB045112FA0EF210
:1025F000BDE8104058BF7047401C38BF5FEA420238
:1026000018BF7047002814BF20F0010041F10001FD
:102610004FEA410313F5001F38BF7047A1F1C041D5
:1026200000F076BB012A43EB0302ACF1200CDCF195
:102630001F0E32BF4FF0000E23FA0CF310EB030015
:1026400041EB0451B4EB115FD0D0A1EB045101F583
:10265000801149085FEA300001EB04510ED350F1BC
:10266000000038BF12FA0EFE08D1BDE81040C9E7DD
:10267000401C38BF5FEA4202CAD1C3E7BDE8104040
:102680004FEA410313F5001F38BF7047A1F1C04165
:1026900000F03EBB9EEA445F08D011EA5E0FBDE841
:1026A000104004BF01F0004100207047BDE8104019
:1026B00070B500F0DFFA00BF64FBBE3E0000E0FF33
:1026C00002494FF0000000F026BD00BF0000F87F77
:1026D000491058BFC1F140415B1058BFC3F140439E
:1026E0008B42EFF3008070472DE9C04130B4DFF832
:1026F000A0C23CEA111418BF3CEA131400F0EC80AD
:1027000081EA03051CEA111444EAD57418BF1CEAD7
:10271000131500F0C780A4EB05044FF0004545EA0F
:10272000C12145EAC32341EA505143EA525304F11F
:102730007F74994204F500344FEAC0204FEAC22268
:1027400008BF904200F09C804FEA13650FF24016DC
:10275000765D4FEA134506FB05F7C7F1807706FB68
:1027600007F74FEAD737A7FB03687642C8F58038EA
:10277000A7FB06CE38BFA8F1010807FB08E64FF01B
:10278000000EA6FB028CE6FB03CEDCF1000CCEF1C2
:10279000004E38BFAEF1010EA6FB0C584FF00007FB
:1027A0004FF00005E6FB0E87A1FB08C6A0FB07CE95
:1027B00016EB0E0645F10005E1FB076515F1E04E4D
:1027C0007EBFA4F580345FEA46066D4116F18007AE
:1027D00045F100054FEA17274FEA066647EA056705
:1027E000A6F1DE46B6F1805F4FEA15251FD93846BF
:1027F00024F0010C05EBC471BCF1FE6F01EB0C1170
:1028000002D8F0BCBDE8008124425CBF01F5801E07
:102810009EEAC47F02D4F0BCBDE80081244238D4D3
:10282000F0BCA1F1C041BDE8004100F071BA4FEA2F
:10283000D22242EA43524FEAD323A7FB02864FEA51
:10284000D02040EA415007FB03661EEA0E0F4FEA14
:10285000D12105FB026658BFA6EB0056B6EB005629
:102860004FEA520E4EEAC37E18EB0E0E56EB530E95
:10287000BDD518EB02085E417F1C55F10005B6E797
:102880004FF480154FF000074FF000064FF000089E
:10289000ADE7F0BC4FF0000001F1C04101F0004194
:1028A000BDE8008111EA0C1F0CEA131500D00CE002
:1028B00013EA0C1F00F025804FF00000F0BC81EA05
:1028C000030101F00041BDE80081F0BCBDE800411A
:1028D00081EA030100F01CBAF0BCBDE8004170B50C
:1028E00000F0C8F9097EFC3E00F007B881EA030158
:1028F0004FF0000001F00041704781EA030100F051
:1029000007BAF0BCBDE800414FF000002149704714
:10291000FFFDFBF9F7F5F4F2F0EEEDEBE9E8E6E4A4
:10292000E3E1E0DEDDDBDAD8D7D5D4D3D1D0CFCD2B
:10293000CCCBCAC8C7C6C5C4C2C1C0BFBEBDBCBB64
:10294000BAB9B8B7B6B5B4B3B2B1B0AFAEADACAB5F
:10295000AAA9A8A8A7A6A5A4A3A3A2A1A09F9F9E39
:102960009D9C9C9B9A9999989797969595949393EB
:10297000929191908F8F8E8E8D8C8C8B8B8A898982
:102980008888878786858584848383828281818005
:102990000000FF070000F87F4FEA41034FEA53535E
:1029A000A3F58063D3F11E03C8BFD3F1210C0CDD66
:1029B0004FF0004242EAC12242EA505232FA03FC8E
:1029C0008CEAE17CACEBE1707047102BC4BF0020B7
:1029D000704703F5787CBCF1FF3F04D06FF00042F4
:1029E00082EA2100704770B500F044F949922480D2
:1029F00000207047F2E700004FEA1153A3F580630F
:102A0000D3F11E03A8BFD3F1200C08DB4FF0004226
:102A100042EAC12252EA505232FA03F070470942A8
:102A20000BD4102BC4BF0020704703F5787CBCF199
:102A3000FF3F05D04FF0FF3070474FF00000704768
:102A400070B500F017F900BF49922480002070474C
:102A5000F0E710F0004248BF4042B0FA80F310FAAD
:102A600003F10AD0C3F11D0303F580634FEA41501F
:102A700002EB035202EBD12170474FF00000704788
:102A8000B0FA80F310FA03F10AD0C3F11D0303F585
:102A900080634FEA41504FEA035202EBD121704765
:102AA0004FF000007047000051EA030C17D41CF5EA
:102AB000801F58BFBCF5801F00F10680994218BFE7
:102AC000704708BF9042704707D711F5801F58BF65
:102AD00013F5801F19D499427047894270471CF53D
:102AE000801F08D5BCF5801FF7D58B4218BF7047F3
:102AF00008BF824270474FF4001C1CEB410F38BFE7
:102B00001CEB430F01D28B42704770B500F0B2F856
:102B1000922449004FF000514FF08053FFF7D8BD89
:102B2000DFF848C170B51CEA111E1EBF1CEA131560
:102B30009EEA0C0F95EA0C0F00F06F8081EA030407
:102B400023EA4C134EEAD47E21EA4C1141F4801161
:102B500043F48013AE44A1FB024CA0FB0365AEF12D
:102B60007F7E361955EB0C05A1FB034C4CF100039D
:102B7000A0FB021C16EB0C06654153F10003094251
:102B800018BF46F0010613F4007F0BD14FEA033162
:102B90004FEA0530340341EA155140EA16506FF010
:102BA00003020AE04FEAC3214FEAC520F40241EADA
:102BB000555140EA56506FF0020202EB2E4201EBF3
:102BC000025585EACE710AD05FEA440C18BF24F0A2
:102BD000004450F1000041F1000120EAD47040F2BD
:102BE000FE7C624500D270BDA84214BF4FF0804405
:102BF0004FF04044002E08BF0024BEF1806FA8BFF4
:102C0000A1F1C041BDE8704080F282804FF0000029
:102C100001F1C04101F0004170479EEA0C0F0CEA3F
:102C2000131518BF95EA0C0F06D04FF0000081EA8B
:102C3000030E0EF0004170BD00F01CF88900013E4B
:102C400000F007B800F009B84FEA430C5FEA5C5C9B
:102C500008D081EA030100F05BB84FEA410C5FEA5B
:102C60005C5CF6D14FF00000014970470000FF079F
:102C70000000F87F0EF1020E2EF0030E5EF8046BDA
:102C8000364205D4012A43EB030515F5001F12D87F
:102C9000012841EB010C1CF5001F0CD80ED14FEAA6
:102CA000D17C15F5001F0CEB4C0C0CF1020C08BF8D
:102CB0004CEBD37C04E04FF0080C01E04FEAD37CEE
:102CC0000CEB4C0526FA05F606F00706B6F1040CE7
:102CD00006D20EEB860CBDE870404CF0010C60474C
:102CE000DFE80CF0090B02024FF000414FF000004A
:102CF000A1F5002170BD19461046012851EB0104D1
:102D000018BFD4F5001484BF002001F0004170BD4D
:102D10000808A0F500114FEA3101704753EA010C91
:102D200017D41CF5801F58BFBCF5801F00F106802A
:102D30008B4218BF704708BF8242704707D713F510
:102D4000801F58BF11F5801F19D48B4270479B42DA
:102D500070471CF5801F08D5BCF5801FF7D5994238
:102D600018BF704708BF904270474FF4001C1CEB1F
:102D7000430F38BF1CEB410F01D2994270470FB48B
:102D80000CBC03BCFFF7C1BE91EA030F10B581F084
:102D900000413FF5F5AB83F0004300F0D5B80000EB
:102DA0002DE9F04101F5801CBCF5001FC0F2A9809F
:102DB0004FEA115C21EA0C510CF1FD0C41F4801139
:102DC0005FEA5C0C0CF5C07C01D34000494130A4A3
:102DD000890241EA905187028E0E0A0CA45D04FB21
:102DE00004F602FB06F6C6F14046A4FB0662F60DA9
:102DF00046EA422606FB06F4A4FB01235242C3F135
:102E0000404338BF5B1EA6FB02420024E6FB0324BE
:102E1000D20B42EA4446A6FB0623A1FB02E2A3FB37
:102E200007E4E3FB61426442C2F1404E38BFAEF1B9
:102E3000010EA6FB04234FF00002E6FB0E32A2FBBC
:102E400003463400E2FB6264A1FB06E6A4FB07E84C
:102E5000E4FB61687642C8F1405838BFA8F1010828
:102E6000A2FB06E4A3FB08E5E2FB6854A1FB05E630
:102E7000A7FB04E8E1FB648618F1200556F1000683
:102E8000A809A8F11B08B10908F03F08B8F10A0F1A
:102E900040EA86601CD901EB0C51BDE8F08100BF0F
:102EA000FCF5EEE8E2DDD8D3CFCBC7C3C0BDB9B6E1
:102EB000B4B1AEACA9A7A5A3A19F9D9B9A989695E6
:102EC0009392908F8D8C8B8988878685848382816D
:102ED000A0FB006800FB01F208EB4208B8EB872872
:102EE00007D5341858EB0104D5D5401C51F1000129
:102EF000D1E7341A78EB0104CDD4401E71F1000102
:102F0000C9E75FEA4C0C5FEA9C5C0DD105D34FF03A
:102F1000000001F00041BDE8F081BDE8F04170B56E
:102F2000FFF7A8FE6DDBFFBEBDE8F0414FF00000EB
:102F3000004970470000F87F10B591EA030F48BFC1
:102F400083F000433FF51CAB841A71EB030C07D2EE
:102F500012198CF0004C43EB0C03001B61EB0C01CD
:102F6000DFF8A4E14FEA1154A4EB135C1EEA430F0F
:102F700018BF9EEA445F00F0B08023EA6E0352421D
:102F800021EA0451C3EB6E0338BF5B1EDCF1200E57
:102F900025D322FA0CFE10EB0E0043FA0CFE41EB97
:102FA0000E01CCF1200E03FA0EFE10EB0E0051F1D3
:102FB0000001CCF1200E29D412FA0EF201EB0451DB
:102FC000BDE8104058BF7047401C1CBFB2F1004F15
:102FD000704700280CBF491C20F00100704712EB1D
:102FE000020E43EB030218BF4FF0010E4EEA4202FD
:102FF000ACF1200CDCF11E0E54D943FA0CFE10EBA0
:103000000E0051F1FF31CCF11E0ED5D50EF1010E9F
:1030100012FA0EFE404141EB010101EB445C5FEA14
:103020005C5C10D910EBDE7001EB045138BFBEF1CF
:10303000004FBDE8104018BF704700280CBF491C66
:1030400020F00100704730D24FEAD42C11F5001166
:1030500024F400641BD0B1FA81F20B3AA41AA41E26
:10306000D2F12003914030FA03F31943904001EB71
:10307000CC71002C01EB0451BDE81040A8BF704793
:1030800001F1C0414FF0000001F000417047B0FA7B
:1030900080F310FA03F100D110BDE41A173C480583
:1030A000C90AE4E701EB045110BD491001EB0451DA
:1030B000BDE810404FEA300002E04FF000017047D9
:1030C0004A0008BF0042F8D0B2F5001F28BF704781
:1030D00001F000414FF0000070479EEA445F07D0C6
:1030E00011EA5E0FBDE8104004BF002100207047C8
:1030F000BDE8104070B5FFF7BDFD00BF40DFF63EF4
:1031000083F00041104670470000E0FF4FF0407030
:10311000E1EE100A70470CF00F03092B08BF0820DE
:1031200000F059800A2B0BD0082B18BF704708BF3E
:103130001CF0400F0AD04FF000004FF00001704724
:103140001CF0400F18BF4FF0004070471CF0100FEC
:1031500008D020F0704300F07F4242EAD3014FEAEA
:103160004370704700F0604021F07F4242EA000265
:1031700001F07F4040EA727070474FF0FF0C4CF452
:10318000E06C1CEA11531CBF9CEA030C9445C2BFBF
:10319000DA4201EB02517047002B0DD0BCF1000F59
:1031A0000FD0002A01F00041A4BF41F0E04141F0FE
:1031B0007F614FF00000704701F000414FF00000C8
:1031C000704750EA01334FF09B0C18BF4CF0806CF5
:1031D0007FF476AA70471CF4801F11D01CF4E02FF6
:1031E00003D06FEACC31490070474FF04050EFF305
:1031F000008222F0704242EA000282F300887047A7
:103200004FF0000070470000000000000000F03F99
:10321000000000000000F83F000000000000000077
:103220000000004003B8E23F000000000000000082
:1032300006D0CF43EBFD4C3E033333333333E33F10
:10324000FFAB6FDBB66DDB3F4D268F515555D53F3C
:1032500001411DA96074D13F65DBC9934A86CD3F0A
:10326000EF4E454A287ECA3F3E5555555555C53FF8
:1032700093BDBE166CC166BF2CDE25AF6A56113FEA
:10328000F16BD2C541BDBBBED0A4BE726937663EEC
:103290004C5555555555A53F7751C1166CC156BF74
:1032A0009015CB19A001FA3EAD529C804F7E92BE84
:1032B000C4B1B4BD9EEE213ED43888BEE9FAA8BDA3
:1032C000000000000000000000004054FB21F93F16
:1032D0003163621A61B4D03D0000601A61B4D03D20
:1032E0007370032E8A19A33B0000002E8A19A33B9A
:1032F000C14920259A837B390000000000000000AE
:103300006E83F9A22915444ED15727FCC0DD34F550
:10331000999562DB4190433CAB6351FE61C5BBDED6
:103320003A6E24B7E0D24D42EA2E49061C92D109EA
:103330001CEB1DFE3EA729B1F53582E88444BB2E67
:1033400026709CE9417E5FB439D69139F4395383B4
:103350008B5F849C3B28F9BDFF97F81F0F9805DE13
:103360008B112FEF1F6D0A5ACF7E366DB709CB2711
:10337000663F464F2DEA5F9EC7BA27757BF1E5EBA6
:10338000F739073DEA92528AB15FFB6B085D8D1FEA
:10339000A6F810111111813FD561C119A0012ABFF2
:1033A0007DFEB157E31DC73EEB9C2B8AE6E55ABE76
:1033B0007CD5CF5A3AD9E53DD8330008000000202B
:1033C00004000000C4010008DC33000804000020F1
:0C33D00094060000E0010008000000006E
:040000050800018965
:00000001FF
